{
  "contractName": "Token",
  "abi": [
    {
      "constant": true,
      "inputs": [],
      "name": "name",
      "outputs": [
        {
          "name": "",
          "type": "string"
        }
      ],
      "payable": false,
      "stateMutability": "view",
      "type": "function"
    },
    {
      "constant": true,
      "inputs": [],
      "name": "pa",
      "outputs": [
        {
          "name": "",
          "type": "uint256"
        }
      ],
      "payable": false,
      "stateMutability": "view",
      "type": "function"
    },
    {
      "constant": true,
      "inputs": [],
      "name": "totalSupply",
      "outputs": [
        {
          "name": "",
          "type": "uint256"
        }
      ],
      "payable": false,
      "stateMutability": "view",
      "type": "function"
    },
    {
      "constant": true,
      "inputs": [],
      "name": "rate",
      "outputs": [
        {
          "name": "",
          "type": "uint256"
        }
      ],
      "payable": false,
      "stateMutability": "view",
      "type": "function"
    },
    {
      "constant": true,
      "inputs": [],
      "name": "decimals",
      "outputs": [
        {
          "name": "",
          "type": "uint8"
        }
      ],
      "payable": false,
      "stateMutability": "view",
      "type": "function"
    },
    {
      "constant": true,
      "inputs": [],
      "name": "_start",
      "outputs": [
        {
          "name": "",
          "type": "uint256"
        }
      ],
      "payable": false,
      "stateMutability": "view",
      "type": "function"
    },
    {
      "constant": true,
      "inputs": [],
      "name": "owner",
      "outputs": [
        {
          "name": "",
          "type": "address"
        }
      ],
      "payable": false,
      "stateMutability": "view",
      "type": "function"
    },
    {
      "constant": true,
      "inputs": [],
      "name": "symbol",
      "outputs": [
        {
          "name": "",
          "type": "string"
        }
      ],
      "payable": false,
      "stateMutability": "view",
      "type": "function"
    },
    {
      "constant": false,
      "inputs": [
        {
          "name": "newOwner",
          "type": "address"
        }
      ],
      "name": "transferOwnership",
      "outputs": [],
      "payable": false,
      "stateMutability": "nonpayable",
      "type": "function"
    },
    {
      "inputs": [],
      "payable": false,
      "stateMutability": "nonpayable",
      "type": "constructor"
    },
    {
      "anonymous": false,
      "inputs": [
        {
          "indexed": true,
          "name": "owner",
          "type": "address"
        },
        {
          "indexed": true,
          "name": "spender",
          "type": "address"
        },
        {
          "indexed": false,
          "name": "value",
          "type": "uint256"
        }
      ],
      "name": "Approval",
      "type": "event"
    },
    {
      "anonymous": false,
      "inputs": [
        {
          "indexed": true,
          "name": "from",
          "type": "address"
        },
        {
          "indexed": true,
          "name": "to",
          "type": "address"
        },
        {
          "indexed": false,
          "name": "value",
          "type": "uint256"
        }
      ],
      "name": "Transfer",
      "type": "event"
    },
    {
      "anonymous": false,
      "inputs": [
        {
          "indexed": true,
          "name": "previousOwner",
          "type": "address"
        },
        {
          "indexed": true,
          "name": "newOwner",
          "type": "address"
        }
      ],
      "name": "OwnershipTransferred",
      "type": "event"
    },
    {
      "constant": true,
      "inputs": [
        {
          "name": "who",
          "type": "address"
        }
      ],
      "name": "balanceOf",
      "outputs": [
        {
          "name": "",
          "type": "uint256"
        }
      ],
      "payable": false,
      "stateMutability": "view",
      "type": "function"
    },
    {
      "constant": false,
      "inputs": [
        {
          "name": "to",
          "type": "address"
        },
        {
          "name": "value",
          "type": "uint256"
        }
      ],
      "name": "transfer",
      "outputs": [
        {
          "name": "",
          "type": "bool"
        }
      ],
      "payable": false,
      "stateMutability": "nonpayable",
      "type": "function"
    },
    {
      "constant": false,
      "inputs": [
        {
          "name": "from",
          "type": "address"
        },
        {
          "name": "to",
          "type": "address"
        },
        {
          "name": "value",
          "type": "uint256"
        }
      ],
      "name": "transferFrom",
      "outputs": [
        {
          "name": "",
          "type": "bool"
        }
      ],
      "payable": false,
      "stateMutability": "nonpayable",
      "type": "function"
    },
    {
      "constant": false,
      "inputs": [
        {
          "name": "spender",
          "type": "address"
        },
        {
          "name": "amount",
          "type": "uint256"
        }
      ],
      "name": "approve",
      "outputs": [
        {
          "name": "",
          "type": "bool"
        }
      ],
      "payable": false,
      "stateMutability": "nonpayable",
      "type": "function"
    },
    {
      "constant": true,
      "inputs": [
        {
          "name": "from",
          "type": "uint256"
        },
        {
          "name": "to",
          "type": "uint256"
        }
      ],
      "name": "delta",
      "outputs": [
        {
          "name": "",
          "type": "uint256"
        }
      ],
      "payable": false,
      "stateMutability": "pure",
      "type": "function"
    },
    {
      "constant": true,
      "inputs": [
        {
          "name": "amount",
          "type": "uint256"
        },
        {
          "name": "_days",
          "type": "uint256"
        }
      ],
      "name": "calcInterest",
      "outputs": [
        {
          "name": "",
          "type": "uint256"
        }
      ],
      "payable": false,
      "stateMutability": "view",
      "type": "function"
    },
    {
      "constant": true,
      "inputs": [
        {
          "name": "who",
          "type": "address"
        },
        {
          "name": "timestamp",
          "type": "uint256"
        }
      ],
      "name": "getBalanceAtTime",
      "outputs": [
        {
          "name": "",
          "type": "uint256"
        }
      ],
      "payable": false,
      "stateMutability": "view",
      "type": "function"
    },
    {
      "constant": true,
      "inputs": [],
      "name": "getInCirculation",
      "outputs": [
        {
          "name": "",
          "type": "uint256"
        }
      ],
      "payable": false,
      "stateMutability": "view",
      "type": "function"
    },
    {
      "constant": true,
      "inputs": [
        {
          "name": "who",
          "type": "address"
        }
      ],
      "name": "isHodler",
      "outputs": [
        {
          "name": "",
          "type": "bool"
        }
      ],
      "payable": false,
      "stateMutability": "view",
      "type": "function"
    },
    {
      "constant": false,
      "inputs": [
        {
          "name": "who",
          "type": "address"
        }
      ],
      "name": "insertHodler",
      "outputs": [
        {
          "name": "",
          "type": "uint256"
        }
      ],
      "payable": false,
      "stateMutability": "nonpayable",
      "type": "function"
    }
  ],
  "bytecode": "0x60806040526040805190810160405280600d81526020017f5669727475616c20546f6b656e000000000000000000000000000000000000008152506001908051906020019062000051929190620003b6565b506040805190810160405280600481526020017f5649544f00000000000000000000000000000000000000000000000000000000815250600290805190602001906200009f929190620003b6565b506004600360006101000a81548160ff021916908360ff160217905550655af3107a40006004556102586008556010600955600360009054906101000a900460ff1660ff16600a0a60ff1661c3500261ffff16600a553480156200010257600080fd5b50336000806101000a81548173ffffffffffffffffffffffffffffffffffffffff021916908373ffffffffffffffffffffffffffffffffffffffff16021790555042600b819055506200016433620001fd640100000000026401000000009004565b50600b54600560003373ffffffffffffffffffffffffffffffffffffffff1673ffffffffffffffffffffffffffffffffffffffff16815260200190815260200160002060000181905550600454600560003373ffffffffffffffffffffffffffffffffffffffff1673ffffffffffffffffffffffffffffffffffffffff1681526020019081526020016000206001018190555062000465565b60006200021982620002e9640100000000026401000000009004565b1515620002df57600160068390806001815401808255809150509060018203906000526020600020016000909192909190916101000a81548173ffffffffffffffffffffffffffffffffffffffff021916908373ffffffffffffffffffffffffffffffffffffffff16021790555003600560008473ffffffffffffffffffffffffffffffffffffffff1673ffffffffffffffffffffffffffffffffffffffff168152602001908152602001600020600201819055506001600680549050039050620002e4565b600090505b919050565b6000806006805490501415620003035760009050620003b1565b8173ffffffffffffffffffffffffffffffffffffffff166006600560008573ffffffffffffffffffffffffffffffffffffffff1673ffffffffffffffffffffffffffffffffffffffff168152602001908152602001600020600201548154811015156200036c57fe5b9060005260206000200160009054906101000a900473ffffffffffffffffffffffffffffffffffffffff1673ffffffffffffffffffffffffffffffffffffffff161490505b919050565b828054600181600116156101000203166002900490600052602060002090601f016020900481019282601f10620003f957805160ff19168380011785556200042a565b828001600101855582156200042a579182015b82811115620004295782518255916020019190600101906200040c565b5b5090506200043991906200043d565b5090565b6200046291905b808211156200045e57600081600090555060010162000444565b5090565b90565b611d2a80620004756000396000f3fe608060405260043610610107576000357c0100000000000000000000000000000000000000000000000000000000900463ffffffff16806306fdde031461010c578063095ea7b31461019c5780630a63361c1461020f57806313cfc1721461023a57806318160ddd1461026557806323b872dd146102905780632c4e722e146103235780632d340bcd1461034e578063313ce567146103a757806352f37c40146103d857806353ef6781146104415780635a9e74ae1461046c578063680c964a146104db57806370a08231146105405780638da5cb5b146105a557806395d89b41146105fc578063a9059cbb1461068c578063cc8b7b73146106ff578063f2fde38b14610758575b600080fd5b34801561011857600080fd5b506101216107a9565b6040518080602001828103825283818151815260200191508051906020019080838360005b83811015610161578082015181840152602081019050610146565b50505050905090810190601f16801561018e5780820380516001836020036101000a031916815260200191505b509250505060405180910390f35b3480156101a857600080fd5b506101f5600480360360408110156101bf57600080fd5b81019080803573ffffffffffffffffffffffffffffffffffffffff16906020019092919080359060200190929190505050610847565b604051808215151515815260200191505060405180910390f35b34801561021b57600080fd5b506102246109dd565b6040518082815260200191505060405180910390f35b34801561024657600080fd5b5061024f6109e3565b6040518082815260200191505060405180910390f35b34801561027157600080fd5b5061027a610ad2565b6040518082815260200191505060405180910390f35b34801561029c57600080fd5b50610309600480360360608110156102b357600080fd5b81019080803573ffffffffffffffffffffffffffffffffffffffff169060200190929190803573ffffffffffffffffffffffffffffffffffffffff16906020019092919080359060200190929190505050610ad8565b604051808215151515815260200191505060405180910390f35b34801561032f57600080fd5b50610338610fc1565b6040518082815260200191505060405180910390f35b34801561035a57600080fd5b506103916004803603604081101561037157600080fd5b810190808035906020019092919080359060200190929190505050610fc7565b6040518082815260200191505060405180910390f35b3480156103b357600080fd5b506103bc611024565b604051808260ff1660ff16815260200191505060405180910390f35b3480156103e457600080fd5b50610427600480360360208110156103fb57600080fd5b81019080803573ffffffffffffffffffffffffffffffffffffffff169060200190929190505050611037565b604051808215151515815260200191505060405180910390f35b34801561044d57600080fd5b50610456611101565b6040518082815260200191505060405180910390f35b34801561047857600080fd5b506104c56004803603604081101561048f57600080fd5b81019080803573ffffffffffffffffffffffffffffffffffffffff16906020019092919080359060200190929190505050611107565b6040518082815260200191505060405180910390f35b3480156104e757600080fd5b5061052a600480360360208110156104fe57600080fd5b81019080803573ffffffffffffffffffffffffffffffffffffffff1690602001909291905050506112f4565b6040518082815260200191505060405180910390f35b34801561054c57600080fd5b5061058f6004803603602081101561056357600080fd5b81019080803573ffffffffffffffffffffffffffffffffffffffff1690602001909291905050506113cd565b6040518082815260200191505060405180910390f35b3480156105b157600080fd5b506105ba61145f565b604051808273ffffffffffffffffffffffffffffffffffffffff1673ffffffffffffffffffffffffffffffffffffffff16815260200191505060405180910390f35b34801561060857600080fd5b50610611611484565b6040518080602001828103825283818151815260200191508051906020019080838360005b83811015610651578082015181840152602081019050610636565b50505050905090810190601f16801561067e5780820380516001836020036101000a031916815260200191505b509250505060405180910390f35b34801561069857600080fd5b506106e5600480360360408110156106af57600080fd5b81019080803573ffffffffffffffffffffffffffffffffffffffff16906020019092919080359060200190929190505050611522565b604051808215151515815260200191505060405180910390f35b34801561070b57600080fd5b506107426004803603604081101561072257600080fd5b8101908080359060200190929190803590602001909291905050506119da565b6040518082815260200191505060405180910390f35b34801561076457600080fd5b506107a76004803603602081101561077b57600080fd5b81019080803573ffffffffffffffffffffffffffffffffffffffff169060200190929190505050611a5f565b005b60018054600181600116156101000203166002900480601f01602080910402602001604051908101604052809291908181526020018280546001816001161561010002031660029004801561083f5780601f106108145761010080835404028352916020019161083f565b820191906000526020600020905b81548152906001019060200180831161082257829003601f168201915b505050505081565b60008073ffffffffffffffffffffffffffffffffffffffff168373ffffffffffffffffffffffffffffffffffffffff16141515156108ed576040517f08c379a000000000000000000000000000000000000000000000000000000000815260040180806020018281038252600f8152602001807f496e76616c69642061646472657373000000000000000000000000000000000081525060200191505060405180910390fd5b81600760003373ffffffffffffffffffffffffffffffffffffffff1673ffffffffffffffffffffffffffffffffffffffff16815260200190815260200160002060008573ffffffffffffffffffffffffffffffffffffffff1673ffffffffffffffffffffffffffffffffffffffff168152602001908152602001600020819055508273ffffffffffffffffffffffffffffffffffffffff163373ffffffffffffffffffffffffffffffffffffffff167f8c5be1e5ebec7d5bd14f71427d1e84f3dd0314c0f7b2291e5b200ac8c7c3b925846040518082815260200191505060405180910390a36001905092915050565b60085481565b60008060009050600042905060008090505b600680549050811015610ac9576000600682815481101515610a1357fe5b9060005260206000200160009054906101000a900473ffffffffffffffffffffffffffffffffffffffff1690506000809054906101000a900473ffffffffffffffffffffffffffffffffffffffff1673ffffffffffffffffffffffffffffffffffffffff168173ffffffffffffffffffffffffffffffffffffffff16141515610abb576000610aa28285611107565b9050610ab78186611cac90919063ffffffff16565b9450505b5080806001019150506109f5565b50819250505090565b60045481565b60008042905082610ae98683611107565b10151515610b5f576040517f08c379a00000000000000000000000000000000000000000000000000000000081526004018080602001828103825260148152602001807f496e73756666696369656e742062616c616e636500000000000000000000000081525060200191505060405180910390fd5b610b698482611107565b610b8584610b778785611107565b611cac90919063ffffffff16565b10151515610bfb576040517f08c379a00000000000000000000000000000000000000000000000000000000081526004018080602001828103825260148152602001807f496e73756666696369656e742062616c616e636500000000000000000000000081525060200191505060405180910390fd5b82600760008773ffffffffffffffffffffffffffffffffffffffff1673ffffffffffffffffffffffffffffffffffffffff16815260200190815260200160002060003373ffffffffffffffffffffffffffffffffffffffff1673ffffffffffffffffffffffffffffffffffffffff1681526020019081526020016000205410151515610cef576040517f08c379a00000000000000000000000000000000000000000000000000000000081526004018080602001828103825260148152602001807f496e73756666696369656e742062616c616e636500000000000000000000000081525060200191505060405180910390fd5b42600560008773ffffffffffffffffffffffffffffffffffffffff1673ffffffffffffffffffffffffffffffffffffffff16815260200190815260200160002060000181905550610d5283610d448784611107565b611cca90919063ffffffff16565b600560008773ffffffffffffffffffffffffffffffffffffffff1673ffffffffffffffffffffffffffffffffffffffff16815260200190815260200160002060010181905550610e2783600760008873ffffffffffffffffffffffffffffffffffffffff1673ffffffffffffffffffffffffffffffffffffffff16815260200190815260200160002060003373ffffffffffffffffffffffffffffffffffffffff1673ffffffffffffffffffffffffffffffffffffffff16815260200190815260200160002054611cca90919063ffffffff16565b600760008773ffffffffffffffffffffffffffffffffffffffff1673ffffffffffffffffffffffffffffffffffffffff16815260200190815260200160002060003373ffffffffffffffffffffffffffffffffffffffff1673ffffffffffffffffffffffffffffffffffffffff1681526020019081526020016000208190555042600560008673ffffffffffffffffffffffffffffffffffffffff1673ffffffffffffffffffffffffffffffffffffffff16815260200190815260200160002060000181905550610f0a83610efc8684611107565b611cac90919063ffffffff16565b600560008673ffffffffffffffffffffffffffffffffffffffff1673ffffffffffffffffffffffffffffffffffffffff168152602001908152602001600020600101819055508373ffffffffffffffffffffffffffffffffffffffff168573ffffffffffffffffffffffffffffffffffffffff167fddf252ad1be2c89b69c2b068fc378daa952ba7f163c4a11628f55a4df523b3ef856040518082815260200191505060405180910390a360019150509392505050565b60095481565b60008061016d600360009054906101000a900460ff1660ff16600a0a8402811515610fee57fe5b0490506002600360009054906101000a900460ff160260ff16600a0a8160085486020281151561101a57fe5b0491505092915050565b600360009054906101000a900460ff1681565b600080600680549050141561104f57600090506110fc565b8173ffffffffffffffffffffffffffffffffffffffff166006600560008573ffffffffffffffffffffffffffffffffffffffff1673ffffffffffffffffffffffffffffffffffffffff168152602001908152602001600020600201548154811015156110b757fe5b9060005260206000200160009054906101000a900473ffffffffffffffffffffffffffffffffffffffff1673ffffffffffffffffffffffffffffffffffffffff161490505b919050565b600b5481565b600080600560008573ffffffffffffffffffffffffffffffffffffffff1673ffffffffffffffffffffffffffffffffffffffff1681526020019081526020016000206001015411156112e957600a54600560008573ffffffffffffffffffffffffffffffffffffffff1673ffffffffffffffffffffffffffffffffffffffff1681526020019081526020016000206001015410156111e957600560008473ffffffffffffffffffffffffffffffffffffffff1673ffffffffffffffffffffffffffffffffffffffff1681526020019081526020016000206001015490506112ee565b6000611237600560008673ffffffffffffffffffffffffffffffffffffffff1673ffffffffffffffffffffffffffffffffffffffff16815260200190815260200160002060000154846119da565b905061124f6201518082611ce390919063ffffffff16565b905061129d600560008673ffffffffffffffffffffffffffffffffffffffff1673ffffffffffffffffffffffffffffffffffffffff1681526020019081526020016000206001015482610fc7565b600560008673ffffffffffffffffffffffffffffffffffffffff1673ffffffffffffffffffffffffffffffffffffffff16815260200190815260200160002060010154019150506112ee565b600090505b92915050565b60006112ff82611037565b15156113c357600160068390806001815401808255809150509060018203906000526020600020016000909192909190916101000a81548173ffffffffffffffffffffffffffffffffffffffff021916908373ffffffffffffffffffffffffffffffffffffffff16021790555003600560008473ffffffffffffffffffffffffffffffffffffffff1673ffffffffffffffffffffffffffffffffffffffff1681526020019081526020016000206002018190555060016006805490500390506113c8565b600090505b919050565b60008060009054906101000a900473ffffffffffffffffffffffffffffffffffffffff1673ffffffffffffffffffffffffffffffffffffffff168273ffffffffffffffffffffffffffffffffffffffff16141561144d57600061142e6109e3565b905061144581600454611cca90919063ffffffff16565b91505061145a565b6114578242611107565b90505b919050565b6000809054906101000a900473ffffffffffffffffffffffffffffffffffffffff1681565b60028054600181600116156101000203166002900480601f01602080910402602001604051908101604052809291908181526020018280546001816001161561010002031660029004801561151a5780601f106114ef5761010080835404028352916020019161151a565b820191906000526020600020905b8154815290600101906020018083116114fd57829003601f168201915b505050505081565b600080429050826115333383611107565b101515156115a9576040517f08c379a00000000000000000000000000000000000000000000000000000000081526004018080602001828103825260148152602001807f496e73756666696369656e742062616c616e636500000000000000000000000081525060200191505060405180910390fd5b6115b284611037565b15156115c3576115c1846112f4565b505b6000809054906101000a900473ffffffffffffffffffffffffffffffffffffffff1673ffffffffffffffffffffffffffffffffffffffff163373ffffffffffffffffffffffffffffffffffffffff1614156116fa5761168e83600560008060009054906101000a900473ffffffffffffffffffffffffffffffffffffffff1673ffffffffffffffffffffffffffffffffffffffff1673ffffffffffffffffffffffffffffffffffffffff16815260200190815260200160002060010154611cca90919063ffffffff16565b600560008060009054906101000a900473ffffffffffffffffffffffffffffffffffffffff1673ffffffffffffffffffffffffffffffffffffffff1673ffffffffffffffffffffffffffffffffffffffff168152602001908152602001600020600101819055506117a4565b80600560003373ffffffffffffffffffffffffffffffffffffffff1673ffffffffffffffffffffffffffffffffffffffff1681526020019081526020016000206000018190555061175d8361174f3384611107565b611cca90919063ffffffff16565b600560003373ffffffffffffffffffffffffffffffffffffffff1673ffffffffffffffffffffffffffffffffffffffff168152602001908152602001600020600101819055505b6000809054906101000a900473ffffffffffffffffffffffffffffffffffffffff1673ffffffffffffffffffffffffffffffffffffffff168473ffffffffffffffffffffffffffffffffffffffff1614156118db5761186f83600560008060009054906101000a900473ffffffffffffffffffffffffffffffffffffffff1673ffffffffffffffffffffffffffffffffffffffff1673ffffffffffffffffffffffffffffffffffffffff16815260200190815260200160002060010154611cac90919063ffffffff16565b600560008060009054906101000a900473ffffffffffffffffffffffffffffffffffffffff1673ffffffffffffffffffffffffffffffffffffffff1673ffffffffffffffffffffffffffffffffffffffff1681526020019081526020016000206001018190555061196a565b80600560008673ffffffffffffffffffffffffffffffffffffffff1673ffffffffffffffffffffffffffffffffffffffff1681526020019081526020016000206000018190555082600560008673ffffffffffffffffffffffffffffffffffffffff1673ffffffffffffffffffffffffffffffffffffffff168152602001908152602001600020600101819055505b8373ffffffffffffffffffffffffffffffffffffffff163373ffffffffffffffffffffffffffffffffffffffff167fddf252ad1be2c89b69c2b068fc378daa952ba7f163c4a11628f55a4df523b3ef856040518082815260200191505060405180910390a3600191505092915050565b6000828210151515611a54576040517f08c379a000000000000000000000000000000000000000000000000000000000815260040180806020018281038252601c8152602001807f546f206d7573742062652067726561746572207468616e2066726f6d0000000081525060200191505060405180910390fd5b828203905092915050565b6000809054906101000a900473ffffffffffffffffffffffffffffffffffffffff1673ffffffffffffffffffffffffffffffffffffffff163373ffffffffffffffffffffffffffffffffffffffff16141515611b49576040517f08c379a000000000000000000000000000000000000000000000000000000000815260040180806020018281038252602b8152602001807f46756e6374696f6e2063616e206f6e6c7920626520706572666f726d6564206281526020017f7920746865206f776e657200000000000000000000000000000000000000000081525060400191505060405180910390fd5b600073ffffffffffffffffffffffffffffffffffffffff168173ffffffffffffffffffffffffffffffffffffffff1614151515611bee576040517f08c379a000000000000000000000000000000000000000000000000000000000815260040180806020018281038252600f8152602001807f496e76616c69642061646472657373000000000000000000000000000000000081525060200191505060405180910390fd5b8073ffffffffffffffffffffffffffffffffffffffff166000809054906101000a900473ffffffffffffffffffffffffffffffffffffffff1673ffffffffffffffffffffffffffffffffffffffff167f8be0079c531659141344cd1fd0a4f28419497f9722a3daafe3b4186f6b6457e060405160405180910390a3806000806101000a81548173ffffffffffffffffffffffffffffffffffffffff021916908373ffffffffffffffffffffffffffffffffffffffff16021790555050565b6000808284019050838110151515611cc057fe5b8091505092915050565b6000828211151515611cd857fe5b818303905092915050565b6000808284811515611cf157fe5b049050809150509291505056fea165627a7a72305820677d07b23bc93d62783da1ea6058491bd191e2c01bcd5b17823c16d0197b2d540029",
  "source": "pragma solidity ^0.5.0;\n\nimport \"./Ownable.sol\";\nimport \"./SafeMath.sol\";\n\ncontract Token is Ownable {\n    using SafeMath for uint;\n\n    string public name = \"Virtual Token\";\n    string public symbol = \"VITO\";\n    uint8 public decimals = 4;\n    uint256 public totalSupply = 100000000000000;\n\n    mapping (address => Balance) private _balances;\n    address[] private _hodlers;\n\n    mapping (address => mapping (address => uint256)) private allowed;\n\n    //0.6 * 10 ** 4 (decimals)\n    uint256 public pa = 600; //6% pa\n    uint256 public rate = 16; //per day\n\n    uint256 private _min = 50000 * 10 ** decimals;\n\n    uint256 public _start;\n\n    struct Balance {\n        uint256 timestamp;\n        uint256 amount;\n        uint index;\n    }\n\n    constructor () public {\n        _start = now;\n        insertHodler(msg.sender);\n\n        _balances[msg.sender].timestamp = _start;\n        _balances[msg.sender].amount = totalSupply;\n    }\n\n    function balanceOf(address who) public view returns (uint256) {\n        if (who == owner) {\n            uint256 incirculation = getInCirculation();\n            return totalSupply.sub(incirculation);\n        } else {\n            return getBalanceAtTime(who, now);\n        }\n    }\n\n    function transfer(address to, uint256 value) public returns (bool) {\n        uint256 timestamp = now;\n        require(getBalanceAtTime(msg.sender, timestamp) >= value, \"Insufficient balance\");\n\n        if (!isHodler(to)) {\n            insertHodler(to);\n        }\n        \n        if (msg.sender == owner) {\n            _balances[owner].amount = _balances[owner].amount.sub(value);\n        } else {\n            _balances[msg.sender].timestamp = timestamp;\n            _balances[msg.sender].amount = getBalanceAtTime(msg.sender, timestamp).sub(value);\n        }\n\n        if (to == owner) {\n            _balances[owner].amount = _balances[owner].amount.add(value);\n        } else {\n            _balances[to].timestamp = timestamp;\n            _balances[to].amount = value; //getBalanceAtTime(to, timestamp).add(value);\n\n            //emit Transfer(msg.sender, to, value);\n            //_balances[to] = Balance(timestamp, value, 0); //_balances[to].amount.add(value);\n        }\n\n        emit Transfer(msg.sender, to, value);\n        return true;\n    }\n\n    function transferFrom(address from, address to, uint256 value) public returns (bool) {\n        uint256 timestamp = now;\n\n        require(getBalanceAtTime(from, timestamp) >= value, \"Insufficient balance\");\n        require(getBalanceAtTime(to, timestamp).add(value) >= getBalanceAtTime(to, timestamp), \"Insufficient balance\");\n        require(allowed[from][msg.sender] >= value, \"Insufficient balance\");\n        \n        _balances[from].timestamp = now;\n        _balances[from].amount = getBalanceAtTime(from, timestamp).sub(value);\n\n        allowed[from][msg.sender] = allowed[from][msg.sender].sub(value);\n\n        _balances[to].timestamp = now;\n        _balances[to].amount = getBalanceAtTime(to, timestamp).add(value);\n\n        emit Transfer(from, to, value);\n        return true;\n    }\n\n    function approve(address spender, uint256 amount) public returns (bool) {\n        require(spender != address(0), \"Invalid address\");\n\n        allowed[msg.sender][spender] = amount;\n        emit Approval(msg.sender, spender, amount);\n        return true;\n    }\n\n    function delta(uint256 from, uint256 to) public pure returns (uint256) {\n        require(to >= from, \"To must be greater than from\");\n        return to - from;\n    }\n\n    function calcInterest(uint256 amount, uint256 _days) public view returns (uint256) {\n        uint256 perYear = (_days * uint256(10) ** decimals) / 365;\n        return (amount * pa * perYear) / uint256(10) ** (decimals * 2);\n    }\n\n    function getBalanceAtTime(address who, uint256 timestamp) public view returns(uint256) {\n        if (_balances[who].amount > 0) {\n            if (_balances[who].amount < _min) {\n                return _balances[who].amount;\n            } else {\n                uint256 _delta = delta(_balances[who].timestamp, timestamp);\n                _delta = _delta.div(24 * 60 * 60);\n\n                return _balances[who].amount + calcInterest(_balances[who].amount, _delta);\n            }\n        }\n    \n        return 0;\n    }\n\n    function getInCirculation() public view returns(uint256) {\n        uint256 cumlative = 0;\n        uint256 timestamp = now;\n\n        for (uint256 i = 0; i < _hodlers.length; i++) {\n            address who = _hodlers[i];\n\n            if (who != owner) {\n                uint256 balance = getBalanceAtTime(who, timestamp);\n                cumlative = cumlative.add(balance);\n            }\n        }\n\n        return cumlative;\n    }\n\n    function isHodler(address who) public view returns(bool) {\n        if(_hodlers.length == 0) return false;\n        return (_hodlers[_balances[who].index] == who);\n    }\n\n    function insertHodler(address who) public returns(uint) {\n        if(!isHodler(who)) {\n            _balances[who].index = _hodlers.push(who) - 1;\n            return _hodlers.length - 1;\n        }\n\n        return 0;\n    }\n\n    event Approval(address indexed owner, address indexed spender, uint256 value);\n    event Transfer(address indexed from, address indexed to, uint256 value);\n}",
  "sourcePath": "/Users/lucascullen/GitHub/BitcoinBrisbane/VitoToken/src/contracts/Token.sol",
  "compiler": {
    "name": "solc",
    "version": "0.5.0+commit.1d4f565a.Emscripten.clang"
  },
  "schemaVersion": "3.0.1",
  "updatedAt": "2019-09-20T05:02:51.416Z",
  "devdoc": {
    "methods": {}
  },
  "userdoc": {
    "methods": {}
  }
}